{
  "_format": "hh-sol-artifact-1",
  "contractName": "MyErc721",
  "sourceName": "contracts/NFT.sol",
  "abi": [
    {
      "inputs": [
        {
          "internalType": "address",
          "name": "fc",
          "type": "address"
        }
      ],
      "stateMutability": "nonpayable",
      "type": "constructor"
    },
    {
      "anonymous": false,
      "inputs": [
        {
          "indexed": true,
          "internalType": "address",
          "name": "owner",
          "type": "address"
        },
        {
          "indexed": true,
          "internalType": "address",
          "name": "approved",
          "type": "address"
        },
        {
          "indexed": true,
          "internalType": "uint256",
          "name": "tokenId",
          "type": "uint256"
        }
      ],
      "name": "Approval",
      "type": "event"
    },
    {
      "anonymous": false,
      "inputs": [
        {
          "indexed": true,
          "internalType": "address",
          "name": "owner",
          "type": "address"
        },
        {
          "indexed": true,
          "internalType": "address",
          "name": "operator",
          "type": "address"
        },
        {
          "indexed": false,
          "internalType": "bool",
          "name": "approved",
          "type": "bool"
        }
      ],
      "name": "ApprovalForAll",
      "type": "event"
    },
    {
      "anonymous": false,
      "inputs": [
        {
          "indexed": true,
          "internalType": "address",
          "name": "from",
          "type": "address"
        },
        {
          "indexed": true,
          "internalType": "address",
          "name": "to",
          "type": "address"
        },
        {
          "indexed": true,
          "internalType": "uint256",
          "name": "tokenId",
          "type": "uint256"
        }
      ],
      "name": "Transfer",
      "type": "event"
    },
    {
      "anonymous": false,
      "inputs": [
        {
          "indexed": false,
          "internalType": "uint256",
          "name": "value",
          "type": "uint256"
        },
        {
          "indexed": false,
          "internalType": "bytes",
          "name": "data",
          "type": "bytes"
        }
      ],
      "name": "WITHDRAW",
      "type": "event"
    },
    {
      "inputs": [
        {
          "internalType": "address",
          "name": "to",
          "type": "address"
        },
        {
          "internalType": "uint256",
          "name": "tokenId",
          "type": "uint256"
        }
      ],
      "name": "approve",
      "outputs": [],
      "stateMutability": "nonpayable",
      "type": "function"
    },
    {
      "inputs": [
        {
          "internalType": "address",
          "name": "owner",
          "type": "address"
        }
      ],
      "name": "balanceOf",
      "outputs": [
        {
          "internalType": "uint256",
          "name": "",
          "type": "uint256"
        }
      ],
      "stateMutability": "view",
      "type": "function"
    },
    {
      "inputs": [
        {
          "internalType": "uint256",
          "name": "tokenId",
          "type": "uint256"
        }
      ],
      "name": "getApproved",
      "outputs": [
        {
          "internalType": "address",
          "name": "",
          "type": "address"
        }
      ],
      "stateMutability": "view",
      "type": "function"
    },
    {
      "inputs": [
        {
          "internalType": "address",
          "name": "owner",
          "type": "address"
        },
        {
          "internalType": "address",
          "name": "operator",
          "type": "address"
        }
      ],
      "name": "isApprovedForAll",
      "outputs": [
        {
          "internalType": "bool",
          "name": "",
          "type": "bool"
        }
      ],
      "stateMutability": "view",
      "type": "function"
    },
    {
      "inputs": [
        {
          "internalType": "address",
          "name": "from",
          "type": "address"
        },
        {
          "internalType": "string",
          "name": "tokenURI",
          "type": "string"
        }
      ],
      "name": "mint",
      "outputs": [
        {
          "internalType": "uint256",
          "name": "newItemId",
          "type": "uint256"
        }
      ],
      "stateMutability": "payable",
      "type": "function"
    },
    {
      "inputs": [],
      "name": "name",
      "outputs": [
        {
          "internalType": "string",
          "name": "",
          "type": "string"
        }
      ],
      "stateMutability": "view",
      "type": "function"
    },
    {
      "inputs": [
        {
          "internalType": "uint256",
          "name": "tokenId",
          "type": "uint256"
        }
      ],
      "name": "ownerOf",
      "outputs": [
        {
          "internalType": "address",
          "name": "",
          "type": "address"
        }
      ],
      "stateMutability": "view",
      "type": "function"
    },
    {
      "inputs": [
        {
          "internalType": "address",
          "name": "from",
          "type": "address"
        },
        {
          "internalType": "address",
          "name": "to",
          "type": "address"
        },
        {
          "internalType": "uint256",
          "name": "tokenId",
          "type": "uint256"
        }
      ],
      "name": "safeTransferFrom",
      "outputs": [],
      "stateMutability": "nonpayable",
      "type": "function"
    },
    {
      "inputs": [
        {
          "internalType": "address",
          "name": "from",
          "type": "address"
        },
        {
          "internalType": "address",
          "name": "to",
          "type": "address"
        },
        {
          "internalType": "uint256",
          "name": "tokenId",
          "type": "uint256"
        },
        {
          "internalType": "bytes",
          "name": "data",
          "type": "bytes"
        }
      ],
      "name": "safeTransferFrom",
      "outputs": [],
      "stateMutability": "nonpayable",
      "type": "function"
    },
    {
      "inputs": [
        {
          "internalType": "address",
          "name": "operator",
          "type": "address"
        },
        {
          "internalType": "bool",
          "name": "approved",
          "type": "bool"
        }
      ],
      "name": "setApprovalForAll",
      "outputs": [],
      "stateMutability": "nonpayable",
      "type": "function"
    },
    {
      "inputs": [
        {
          "internalType": "bytes4",
          "name": "interfaceId",
          "type": "bytes4"
        }
      ],
      "name": "supportsInterface",
      "outputs": [
        {
          "internalType": "bool",
          "name": "",
          "type": "bool"
        }
      ],
      "stateMutability": "view",
      "type": "function"
    },
    {
      "inputs": [],
      "name": "symbol",
      "outputs": [
        {
          "internalType": "string",
          "name": "",
          "type": "string"
        }
      ],
      "stateMutability": "view",
      "type": "function"
    },
    {
      "inputs": [
        {
          "internalType": "uint256",
          "name": "tokenId",
          "type": "uint256"
        }
      ],
      "name": "tokenURI",
      "outputs": [
        {
          "internalType": "string",
          "name": "",
          "type": "string"
        }
      ],
      "stateMutability": "view",
      "type": "function"
    },
    {
      "inputs": [
        {
          "internalType": "address",
          "name": "from",
          "type": "address"
        },
        {
          "internalType": "address",
          "name": "to",
          "type": "address"
        },
        {
          "internalType": "uint256",
          "name": "tokenId",
          "type": "uint256"
        }
      ],
      "name": "transferFrom",
      "outputs": [],
      "stateMutability": "nonpayable",
      "type": "function"
    },
    {
      "inputs": [
        {
          "internalType": "address",
          "name": "_to",
          "type": "address"
        }
      ],
      "name": "withdraw",
      "outputs": [],
      "stateMutability": "nonpayable",
      "type": "function"
    }
  ],
  "bytecode": "0x6080604052633b9aca006009553480156200001957600080fd5b506040516200356a3803806200356a83398181016040528101906200003f919062000183565b6040518060400160405280600881526020017f47616d654974656d0000000000000000000000000000000000000000000000008152506040518060400160405280600381526020017f49544d00000000000000000000000000000000000000000000000000000000008152508160009081620000bc91906200042f565b508060019081620000ce91906200042f565b50505080600860006101000a81548173ffffffffffffffffffffffffffffffffffffffff021916908373ffffffffffffffffffffffffffffffffffffffff1602179055505062000516565b600080fd5b600073ffffffffffffffffffffffffffffffffffffffff82169050919050565b60006200014b826200011e565b9050919050565b6200015d816200013e565b81146200016957600080fd5b50565b6000815190506200017d8162000152565b92915050565b6000602082840312156200019c576200019b62000119565b5b6000620001ac848285016200016c565b91505092915050565b600081519050919050565b7f4e487b7100000000000000000000000000000000000000000000000000000000600052604160045260246000fd5b7f4e487b7100000000000000000000000000000000000000000000000000000000600052602260045260246000fd5b600060028204905060018216806200023757607f821691505b6020821081036200024d576200024c620001ef565b5b50919050565b60008190508160005260206000209050919050565b60006020601f8301049050919050565b600082821b905092915050565b600060088302620002b77fffffffffffffffffffffffffffffffffffffffffffffffffffffffffffffffff8262000278565b620002c3868362000278565b95508019841693508086168417925050509392505050565b6000819050919050565b6000819050919050565b6000620003106200030a6200030484620002db565b620002e5565b620002db565b9050919050565b6000819050919050565b6200032c83620002ef565b620003446200033b8262000317565b84845462000285565b825550505050565b600090565b6200035b6200034c565b6200036881848462000321565b505050565b5b8181101562000390576200038460008262000351565b6001810190506200036e565b5050565b601f821115620003df57620003a98162000253565b620003b48462000268565b81016020851015620003c4578190505b620003dc620003d38562000268565b8301826200036d565b50505b505050565b600082821c905092915050565b60006200040460001984600802620003e4565b1980831691505092915050565b60006200041f8383620003f1565b9150826002028217905092915050565b6200043a82620001b5565b67ffffffffffffffff811115620004565762000455620001c0565b5b6200046282546200021e565b6200046f82828562000394565b600060209050601f831160018114620004a7576000841562000492578287015190505b6200049e858262000411565b8655506200050e565b601f198416620004b78662000253565b60005b82811015620004e157848901518255600182019150602085019450602081019050620004ba565b86831015620005015784890151620004fd601f891682620003f1565b8355505b6001600288020188555050505b505050505050565b61304480620005266000396000f3fe6080604052600436106100e85760003560e01c80636352211e1161008a578063b88d4fde11610059578063b88d4fde14610304578063c87b56dd1461032d578063d0def5211461036a578063e985e9c51461039a576100e8565b80636352211e1461023657806370a082311461027357806395d89b41146102b0578063a22cb465146102db576100e8565b8063095ea7b3116100c6578063095ea7b31461019257806323b872dd146101bb57806342842e0e146101e457806351cff8d91461020d576100e8565b806301ffc9a7146100ed57806306fdde031461012a578063081812fc14610155575b600080fd5b3480156100f957600080fd5b50610114600480360381019061010f9190611ce2565b6103d7565b6040516101219190611d2a565b60405180910390f35b34801561013657600080fd5b5061013f6104b9565b60405161014c9190611dd5565b60405180910390f35b34801561016157600080fd5b5061017c60048036038101906101779190611e2d565b61054b565b6040516101899190611e9b565b60405180910390f35b34801561019e57600080fd5b506101b960048036038101906101b49190611ee2565b610591565b005b3480156101c757600080fd5b506101e260048036038101906101dd9190611f22565b6106a8565b005b3480156101f057600080fd5b5061020b60048036038101906102069190611f22565b610708565b005b34801561021957600080fd5b50610234600480360381019061022f9190611f75565b610728565b005b34801561024257600080fd5b5061025d60048036038101906102589190611e2d565b6108a4565b60405161026a9190611e9b565b60405180910390f35b34801561027f57600080fd5b5061029a60048036038101906102959190611f75565b61092a565b6040516102a79190611fb1565b60405180910390f35b3480156102bc57600080fd5b506102c56109e1565b6040516102d29190611dd5565b60405180910390f35b3480156102e757600080fd5b5061030260048036038101906102fd9190611ff8565b610a73565b005b34801561031057600080fd5b5061032b6004803603810190610326919061216d565b610a89565b005b34801561033957600080fd5b50610354600480360381019061034f9190611e2d565b610aeb565b6040516103619190611dd5565b60405180910390f35b610384600480360381019061037f9190612291565b610bfd565b6040516103919190611fb1565b60405180910390f35b3480156103a657600080fd5b506103c160048036038101906103bc91906122ed565b610c74565b6040516103ce9190611d2a565b60405180910390f35b60007f80ac58cd000000000000000000000000000000000000000000000000000000007bffffffffffffffffffffffffffffffffffffffffffffffffffffffff1916827bffffffffffffffffffffffffffffffffffffffffffffffffffffffff191614806104a257507f5b5e139f000000000000000000000000000000000000000000000000000000007bffffffffffffffffffffffffffffffffffffffffffffffffffffffff1916827bffffffffffffffffffffffffffffffffffffffffffffffffffffffff1916145b806104b257506104b182610d08565b5b9050919050565b6060600080546104c89061235c565b80601f01602080910402602001604051908101604052809291908181526020018280546104f49061235c565b80156105415780601f1061051657610100808354040283529160200191610541565b820191906000526020600020905b81548152906001019060200180831161052457829003601f168201915b5050505050905090565b600061055682610d72565b6004600083815260200190815260200160002060009054906101000a900473ffffffffffffffffffffffffffffffffffffffff169050919050565b600061059c826108a4565b90508073ffffffffffffffffffffffffffffffffffffffff168373ffffffffffffffffffffffffffffffffffffffff160361060c576040517f08c379a0000000000000000000000000000000000000000000000000000000008152600401610603906123ff565b60405180910390fd5b8073ffffffffffffffffffffffffffffffffffffffff1661062b610dbd565b73ffffffffffffffffffffffffffffffffffffffff16148061065a575061065981610654610dbd565b610c74565b5b610699576040517f08c379a000000000000000000000000000000000000000000000000000000000815260040161069090612491565b60405180910390fd5b6106a38383610dc5565b505050565b6106b96106b3610dbd565b82610e7e565b6106f8576040517f08c379a00000000000000000000000000000000000000000000000000000000081526004016106ef90612523565b60405180910390fd5b610703838383610f13565b505050565b61072383838360405180602001604052806000815250610a89565b505050565b600860009054906101000a900473ffffffffffffffffffffffffffffffffffffffff1673ffffffffffffffffffffffffffffffffffffffff163373ffffffffffffffffffffffffffffffffffffffff16146107b8576040517f08c379a00000000000000000000000000000000000000000000000000000000081526004016107af9061258f565b60405180910390fd5b6000808273ffffffffffffffffffffffffffffffffffffffff16476040516107df906125e0565b60006040518083038185875af1925050503d806000811461081c576040519150601f19603f3d011682016040523d82523d6000602084013e610821565b606091505b509150915081610866576040517f08c379a000000000000000000000000000000000000000000000000000000000815260040161085d90612641565b60405180910390fd5b7fc5be153ff79190f1dffe15155dd8a29a936b1d6f25f99ec8d2510a6ebccc531347826040516108979291906126b6565b60405180910390a1505050565b6000806108b08361120c565b9050600073ffffffffffffffffffffffffffffffffffffffff168173ffffffffffffffffffffffffffffffffffffffff1603610921576040517f08c379a000000000000000000000000000000000000000000000000000000000815260040161091890612732565b60405180910390fd5b80915050919050565b60008073ffffffffffffffffffffffffffffffffffffffff168273ffffffffffffffffffffffffffffffffffffffff160361099a576040517f08c379a0000000000000000000000000000000000000000000000000000000008152600401610991906127c4565b60405180910390fd5b600360008373ffffffffffffffffffffffffffffffffffffffff1673ffffffffffffffffffffffffffffffffffffffff168152602001908152602001600020549050919050565b6060600180546109f09061235c565b80601f0160208091040260200160405190810160405280929190818152602001828054610a1c9061235c565b8015610a695780601f10610a3e57610100808354040283529160200191610a69565b820191906000526020600020905b815481529060010190602001808311610a4c57829003601f168201915b5050505050905090565b610a85610a7e610dbd565b8383611249565b5050565b610a9a610a94610dbd565b83610e7e565b610ad9576040517f08c379a0000000000000000000000000000000000000000000000000000000008152600401610ad090612523565b60405180910390fd5b610ae5848484846113b5565b50505050565b6060610af682610d72565b6000600660008481526020019081526020016000208054610b169061235c565b80601f0160208091040260200160405190810160405280929190818152602001828054610b429061235c565b8015610b8f5780601f10610b6457610100808354040283529160200191610b8f565b820191906000526020600020905b815481529060010190602001808311610b7257829003601f168201915b505050505090506000610ba0611411565b90506000815103610bb5578192505050610bf8565b600082511115610bea578082604051602001610bd2929190612820565b60405160208183030381529060405292505050610bf8565b610bf384611428565b925050505b919050565b6000600954341015610c44576040517f08c379a0000000000000000000000000000000000000000000000000000000008152600401610c3b90612890565b60405180910390fd5b610c4e6007611490565b9050610c5a838261149e565b610c6481836116bb565b610c6e6007611728565b92915050565b6000600560008473ffffffffffffffffffffffffffffffffffffffff1673ffffffffffffffffffffffffffffffffffffffff16815260200190815260200160002060008373ffffffffffffffffffffffffffffffffffffffff1673ffffffffffffffffffffffffffffffffffffffff16815260200190815260200160002060009054906101000a900460ff16905092915050565b60007f01ffc9a7000000000000000000000000000000000000000000000000000000007bffffffffffffffffffffffffffffffffffffffffffffffffffffffff1916827bffffffffffffffffffffffffffffffffffffffffffffffffffffffff1916149050919050565b610d7b8161173e565b610dba576040517f08c379a0000000000000000000000000000000000000000000000000000000008152600401610db190612732565b60405180910390fd5b50565b600033905090565b816004600083815260200190815260200160002060006101000a81548173ffffffffffffffffffffffffffffffffffffffff021916908373ffffffffffffffffffffffffffffffffffffffff160217905550808273ffffffffffffffffffffffffffffffffffffffff16610e38836108a4565b73ffffffffffffffffffffffffffffffffffffffff167f8c5be1e5ebec7d5bd14f71427d1e84f3dd0314c0f7b2291e5b200ac8c7c3b92560405160405180910390a45050565b600080610e8a836108a4565b90508073ffffffffffffffffffffffffffffffffffffffff168473ffffffffffffffffffffffffffffffffffffffff161480610ecc5750610ecb8185610c74565b5b80610f0a57508373ffffffffffffffffffffffffffffffffffffffff16610ef28461054b565b73ffffffffffffffffffffffffffffffffffffffff16145b91505092915050565b8273ffffffffffffffffffffffffffffffffffffffff16610f33826108a4565b73ffffffffffffffffffffffffffffffffffffffff1614610f89576040517f08c379a0000000000000000000000000000000000000000000000000000000008152600401610f8090612922565b60405180910390fd5b600073ffffffffffffffffffffffffffffffffffffffff168273ffffffffffffffffffffffffffffffffffffffff1603610ff8576040517f08c379a0000000000000000000000000000000000000000000000000000000008152600401610fef906129b4565b60405180910390fd5b611005838383600161177f565b8273ffffffffffffffffffffffffffffffffffffffff16611025826108a4565b73ffffffffffffffffffffffffffffffffffffffff161461107b576040517f08c379a000000000000000000000000000000000000000000000000000000000815260040161107290612922565b60405180910390fd5b6004600082815260200190815260200160002060006101000a81549073ffffffffffffffffffffffffffffffffffffffff02191690556001600360008573ffffffffffffffffffffffffffffffffffffffff1673ffffffffffffffffffffffffffffffffffffffff168152602001908152602001600020600082825403925050819055506001600360008473ffffffffffffffffffffffffffffffffffffffff1673ffffffffffffffffffffffffffffffffffffffff16815260200190815260200160002060008282540192505081905550816002600083815260200190815260200160002060006101000a81548173ffffffffffffffffffffffffffffffffffffffff021916908373ffffffffffffffffffffffffffffffffffffffff160217905550808273ffffffffffffffffffffffffffffffffffffffff168473ffffffffffffffffffffffffffffffffffffffff167fddf252ad1be2c89b69c2b068fc378daa952ba7f163c4a11628f55a4df523b3ef60405160405180910390a461120783838360016118a5565b505050565b60006002600083815260200190815260200160002060009054906101000a900473ffffffffffffffffffffffffffffffffffffffff169050919050565b8173ffffffffffffffffffffffffffffffffffffffff168373ffffffffffffffffffffffffffffffffffffffff16036112b7576040517f08c379a00000000000000000000000000000000000000000000000000000000081526004016112ae90612a20565b60405180910390fd5b80600560008573ffffffffffffffffffffffffffffffffffffffff1673ffffffffffffffffffffffffffffffffffffffff16815260200190815260200160002060008473ffffffffffffffffffffffffffffffffffffffff1673ffffffffffffffffffffffffffffffffffffffff16815260200190815260200160002060006101000a81548160ff0219169083151502179055508173ffffffffffffffffffffffffffffffffffffffff168373ffffffffffffffffffffffffffffffffffffffff167f17307eab39ab6107e8899845ad3d59bd9653f200f220920489ca2b5937696c31836040516113a89190611d2a565b60405180910390a3505050565b6113c0848484610f13565b6113cc848484846118ab565b61140b576040517f08c379a000000000000000000000000000000000000000000000000000000000815260040161140290612ab2565b60405180910390fd5b50505050565b606060405180602001604052806000815250905090565b606061143382610d72565b600061143d611411565b9050600081511161145d5760405180602001604052806000815250611488565b8061146784611a32565b604051602001611478929190612820565b6040516020818303038152906040525b915050919050565b600081600001549050919050565b600073ffffffffffffffffffffffffffffffffffffffff168273ffffffffffffffffffffffffffffffffffffffff160361150d576040517f08c379a000000000000000000000000000000000000000000000000000000000815260040161150490612b1e565b60405180910390fd5b6115168161173e565b15611556576040517f08c379a000000000000000000000000000000000000000000000000000000000815260040161154d90612b8a565b60405180910390fd5b61156460008383600161177f565b61156d8161173e565b156115ad576040517f08c379a00000000000000000000000000000000000000000000000000000000081526004016115a490612b8a565b60405180910390fd5b6001600360008473ffffffffffffffffffffffffffffffffffffffff1673ffffffffffffffffffffffffffffffffffffffff16815260200190815260200160002060008282540192505081905550816002600083815260200190815260200160002060006101000a81548173ffffffffffffffffffffffffffffffffffffffff021916908373ffffffffffffffffffffffffffffffffffffffff160217905550808273ffffffffffffffffffffffffffffffffffffffff16600073ffffffffffffffffffffffffffffffffffffffff167fddf252ad1be2c89b69c2b068fc378daa952ba7f163c4a11628f55a4df523b3ef60405160405180910390a46116b76000838360016118a5565b5050565b6116c48261173e565b611703576040517f08c379a00000000000000000000000000000000000000000000000000000000081526004016116fa90612c1c565b60405180910390fd5b806006600084815260200190815260200160002090816117239190612de8565b505050565b6001816000016000828254019250508190555050565b60008073ffffffffffffffffffffffffffffffffffffffff166117608361120c565b73ffffffffffffffffffffffffffffffffffffffff1614159050919050565b600181111561189f57600073ffffffffffffffffffffffffffffffffffffffff168473ffffffffffffffffffffffffffffffffffffffff16146118135780600360008673ffffffffffffffffffffffffffffffffffffffff1673ffffffffffffffffffffffffffffffffffffffff168152602001908152602001600020600082825461180b9190612ee9565b925050819055505b600073ffffffffffffffffffffffffffffffffffffffff168373ffffffffffffffffffffffffffffffffffffffff161461189e5780600360008573ffffffffffffffffffffffffffffffffffffffff1673ffffffffffffffffffffffffffffffffffffffff16815260200190815260200160002060008282546118969190612f1d565b925050819055505b5b50505050565b50505050565b60006118cc8473ffffffffffffffffffffffffffffffffffffffff16611b00565b15611a25578373ffffffffffffffffffffffffffffffffffffffff1663150b7a026118f5610dbd565b8786866040518563ffffffff1660e01b81526004016119179493929190612f51565b6020604051808303816000875af192505050801561195357506040513d601f19601f820116820180604052508101906119509190612fb2565b60015b6119d5573d8060008114611983576040519150601f19603f3d011682016040523d82523d6000602084013e611988565b606091505b5060008151036119cd576040517f08c379a00000000000000000000000000000000000000000000000000000000081526004016119c490612ab2565b60405180910390fd5b805181602001fd5b63150b7a0260e01b7bffffffffffffffffffffffffffffffffffffffffffffffffffffffff1916817bffffffffffffffffffffffffffffffffffffffffffffffffffffffff191614915050611a2a565b600190505b949350505050565b606060006001611a4184611b23565b01905060008167ffffffffffffffff811115611a6057611a5f612042565b5b6040519080825280601f01601f191660200182016040528015611a925781602001600182028036833780820191505090505b509050600082602001820190505b600115611af5578080600190039150507f3031323334353637383961626364656600000000000000000000000000000000600a86061a8153600a8581611ae957611ae8612fdf565b5b04945060008503611aa0575b819350505050919050565b6000808273ffffffffffffffffffffffffffffffffffffffff163b119050919050565b600080600090507a184f03e93ff9f4daa797ed6e38ed64bf6a1f0100000000000000008310611b81577a184f03e93ff9f4daa797ed6e38ed64bf6a1f0100000000000000008381611b7757611b76612fdf565b5b0492506040810190505b6d04ee2d6d415b85acef81000000008310611bbe576d04ee2d6d415b85acef81000000008381611bb457611bb3612fdf565b5b0492506020810190505b662386f26fc100008310611bed57662386f26fc100008381611be357611be2612fdf565b5b0492506010810190505b6305f5e1008310611c16576305f5e1008381611c0c57611c0b612fdf565b5b0492506008810190505b6127108310611c3b576127108381611c3157611c30612fdf565b5b0492506004810190505b60648310611c5e5760648381611c5457611c53612fdf565b5b0492506002810190505b600a8310611c6d576001810190505b80915050919050565b6000604051905090565b600080fd5b600080fd5b60007fffffffff0000000000000000000000000000000000000000000000000000000082169050919050565b611cbf81611c8a565b8114611cca57600080fd5b50565b600081359050611cdc81611cb6565b92915050565b600060208284031215611cf857611cf7611c80565b5b6000611d0684828501611ccd565b91505092915050565b60008115159050919050565b611d2481611d0f565b82525050565b6000602082019050611d3f6000830184611d1b565b92915050565b600081519050919050565b600082825260208201905092915050565b60005b83811015611d7f578082015181840152602081019050611d64565b60008484015250505050565b6000601f19601f8301169050919050565b6000611da782611d45565b611db18185611d50565b9350611dc1818560208601611d61565b611dca81611d8b565b840191505092915050565b60006020820190508181036000830152611def8184611d9c565b905092915050565b6000819050919050565b611e0a81611df7565b8114611e1557600080fd5b50565b600081359050611e2781611e01565b92915050565b600060208284031215611e4357611e42611c80565b5b6000611e5184828501611e18565b91505092915050565b600073ffffffffffffffffffffffffffffffffffffffff82169050919050565b6000611e8582611e5a565b9050919050565b611e9581611e7a565b82525050565b6000602082019050611eb06000830184611e8c565b92915050565b611ebf81611e7a565b8114611eca57600080fd5b50565b600081359050611edc81611eb6565b92915050565b60008060408385031215611ef957611ef8611c80565b5b6000611f0785828601611ecd565b9250506020611f1885828601611e18565b9150509250929050565b600080600060608486031215611f3b57611f3a611c80565b5b6000611f4986828701611ecd565b9350506020611f5a86828701611ecd565b9250506040611f6b86828701611e18565b9150509250925092565b600060208284031215611f8b57611f8a611c80565b5b6000611f9984828501611ecd565b91505092915050565b611fab81611df7565b82525050565b6000602082019050611fc66000830184611fa2565b92915050565b611fd581611d0f565b8114611fe057600080fd5b50565b600081359050611ff281611fcc565b92915050565b6000806040838503121561200f5761200e611c80565b5b600061201d85828601611ecd565b925050602061202e85828601611fe3565b9150509250929050565b600080fd5b600080fd5b7f4e487b7100000000000000000000000000000000000000000000000000000000600052604160045260246000fd5b61207a82611d8b565b810181811067ffffffffffffffff8211171561209957612098612042565b5b80604052505050565b60006120ac611c76565b90506120b88282612071565b919050565b600067ffffffffffffffff8211156120d8576120d7612042565b5b6120e182611d8b565b9050602081019050919050565b82818337600083830152505050565b600061211061210b846120bd565b6120a2565b90508281526020810184848401111561212c5761212b61203d565b5b6121378482856120ee565b509392505050565b600082601f83011261215457612153612038565b5b81356121648482602086016120fd565b91505092915050565b6000806000806080858703121561218757612186611c80565b5b600061219587828801611ecd565b94505060206121a687828801611ecd565b93505060406121b787828801611e18565b925050606085013567ffffffffffffffff8111156121d8576121d7611c85565b5b6121e48782880161213f565b91505092959194509250565b600067ffffffffffffffff82111561220b5761220a612042565b5b61221482611d8b565b9050602081019050919050565b600061223461222f846121f0565b6120a2565b9050828152602081018484840111156122505761224f61203d565b5b61225b8482856120ee565b509392505050565b600082601f83011261227857612277612038565b5b8135612288848260208601612221565b91505092915050565b600080604083850312156122a8576122a7611c80565b5b60006122b685828601611ecd565b925050602083013567ffffffffffffffff8111156122d7576122d6611c85565b5b6122e385828601612263565b9150509250929050565b6000806040838503121561230457612303611c80565b5b600061231285828601611ecd565b925050602061232385828601611ecd565b9150509250929050565b7f4e487b7100000000000000000000000000000000000000000000000000000000600052602260045260246000fd5b6000600282049050600182168061237457607f821691505b6020821081036123875761238661232d565b5b50919050565b7f4552433732313a20617070726f76616c20746f2063757272656e74206f776e6560008201527f7200000000000000000000000000000000000000000000000000000000000000602082015250565b60006123e9602183611d50565b91506123f48261238d565b604082019050919050565b60006020820190508181036000830152612418816123dc565b9050919050565b7f4552433732313a20617070726f76652063616c6c6572206973206e6f7420746f60008201527f6b656e206f776e6572206f7220617070726f76656420666f7220616c6c000000602082015250565b600061247b603d83611d50565b91506124868261241f565b604082019050919050565b600060208201905081810360008301526124aa8161246e565b9050919050565b7f4552433732313a2063616c6c6572206973206e6f7420746f6b656e206f776e6560008201527f72206f7220617070726f76656400000000000000000000000000000000000000602082015250565b600061250d602d83611d50565b9150612518826124b1565b604082019050919050565b6000602082019050818103600083015261253c81612500565b9050919050565b7f6e6f207065726d697373696f6e21000000000000000000000000000000000000600082015250565b6000612579600e83611d50565b915061258482612543565b602082019050919050565b600060208201905081810360008301526125a88161256c565b9050919050565b600081905092915050565b50565b60006125ca6000836125af565b91506125d5826125ba565b600082019050919050565b60006125eb826125bd565b9150819050919050565b7f7769746864726177206661696c65642100000000000000000000000000000000600082015250565b600061262b601083611d50565b9150612636826125f5565b602082019050919050565b6000602082019050818103600083015261265a8161261e565b9050919050565b600081519050919050565b600082825260208201905092915050565b600061268882612661565b612692818561266c565b93506126a2818560208601611d61565b6126ab81611d8b565b840191505092915050565b60006040820190506126cb6000830185611fa2565b81810360208301526126dd818461267d565b90509392505050565b7f4552433732313a20696e76616c696420746f6b656e2049440000000000000000600082015250565b600061271c601883611d50565b9150612727826126e6565b602082019050919050565b6000602082019050818103600083015261274b8161270f565b9050919050565b7f4552433732313a2061646472657373207a65726f206973206e6f74206120766160008201527f6c6964206f776e65720000000000000000000000000000000000000000000000602082015250565b60006127ae602983611d50565b91506127b982612752565b604082019050919050565b600060208201905081810360008301526127dd816127a1565b9050919050565b600081905092915050565b60006127fa82611d45565b61280481856127e4565b9350612814818560208601611d61565b80840191505092915050565b600061282c82856127ef565b915061283882846127ef565b91508190509392505050565b7f706c656173652070726976617465206665652100000000000000000000000000600082015250565b600061287a601383611d50565b915061288582612844565b602082019050919050565b600060208201905081810360008301526128a98161286d565b9050919050565b7f4552433732313a207472616e736665722066726f6d20696e636f72726563742060008201527f6f776e6572000000000000000000000000000000000000000000000000000000602082015250565b600061290c602583611d50565b9150612917826128b0565b604082019050919050565b6000602082019050818103600083015261293b816128ff565b9050919050565b7f4552433732313a207472616e7366657220746f20746865207a65726f2061646460008201527f7265737300000000000000000000000000000000000000000000000000000000602082015250565b600061299e602483611d50565b91506129a982612942565b604082019050919050565b600060208201905081810360008301526129cd81612991565b9050919050565b7f4552433732313a20617070726f766520746f2063616c6c657200000000000000600082015250565b6000612a0a601983611d50565b9150612a15826129d4565b602082019050919050565b60006020820190508181036000830152612a39816129fd565b9050919050565b7f4552433732313a207472616e7366657220746f206e6f6e20455243373231526560008201527f63656976657220696d706c656d656e7465720000000000000000000000000000602082015250565b6000612a9c603283611d50565b9150612aa782612a40565b604082019050919050565b60006020820190508181036000830152612acb81612a8f565b9050919050565b7f4552433732313a206d696e7420746f20746865207a65726f2061646472657373600082015250565b6000612b08602083611d50565b9150612b1382612ad2565b602082019050919050565b60006020820190508181036000830152612b3781612afb565b9050919050565b7f4552433732313a20746f6b656e20616c7265616479206d696e74656400000000600082015250565b6000612b74601c83611d50565b9150612b7f82612b3e565b602082019050919050565b60006020820190508181036000830152612ba381612b67565b9050919050565b7f45524337323155524953746f726167653a2055524920736574206f66206e6f6e60008201527f6578697374656e7420746f6b656e000000000000000000000000000000000000602082015250565b6000612c06602e83611d50565b9150612c1182612baa565b604082019050919050565b60006020820190508181036000830152612c3581612bf9565b9050919050565b60008190508160005260206000209050919050565b60006020601f8301049050919050565b600082821b905092915050565b600060088302612c9e7fffffffffffffffffffffffffffffffffffffffffffffffffffffffffffffffff82612c61565b612ca88683612c61565b95508019841693508086168417925050509392505050565b6000819050919050565b6000612ce5612ce0612cdb84611df7565b612cc0565b611df7565b9050919050565b6000819050919050565b612cff83612cca565b612d13612d0b82612cec565b848454612c6e565b825550505050565b600090565b612d28612d1b565b612d33818484612cf6565b505050565b5b81811015612d5757612d4c600082612d20565b600181019050612d39565b5050565b601f821115612d9c57612d6d81612c3c565b612d7684612c51565b81016020851015612d85578190505b612d99612d9185612c51565b830182612d38565b50505b505050565b600082821c905092915050565b6000612dbf60001984600802612da1565b1980831691505092915050565b6000612dd88383612dae565b9150826002028217905092915050565b612df182611d45565b67ffffffffffffffff811115612e0a57612e09612042565b5b612e14825461235c565b612e1f828285612d5b565b600060209050601f831160018114612e525760008415612e40578287015190505b612e4a8582612dcc565b865550612eb2565b601f198416612e6086612c3c565b60005b82811015612e8857848901518255600182019150602085019450602081019050612e63565b86831015612ea55784890151612ea1601f891682612dae565b8355505b6001600288020188555050505b505050505050565b7f4e487b7100000000000000000000000000000000000000000000000000000000600052601160045260246000fd5b6000612ef482611df7565b9150612eff83611df7565b9250828203905081811115612f1757612f16612eba565b5b92915050565b6000612f2882611df7565b9150612f3383611df7565b9250828201905080821115612f4b57612f4a612eba565b5b92915050565b6000608082019050612f666000830187611e8c565b612f736020830186611e8c565b612f806040830185611fa2565b8181036060830152612f92818461267d565b905095945050505050565b600081519050612fac81611cb6565b92915050565b600060208284031215612fc857612fc7611c80565b5b6000612fd684828501612f9d565b91505092915050565b7f4e487b7100000000000000000000000000000000000000000000000000000000600052601260045260246000fdfea264697066735822122011e4505d22edd9ccd867bd46349eca65abc5fa2ea0da7b23adc458a4e01b721d64736f6c63430008110033",
  "linkReferences": {},
  "deployedLinkReferences": {}
}