{
  "contractName": "GuessGame",
  "abi": [
    {
      "anonymous": false,
      "inputs": [
        {
          "indexed": false,
          "internalType": "uint256",
          "name": "playerChoice",
          "type": "uint256"
        },
        {
          "indexed": false,
          "internalType": "uint256",
          "name": "computerChoice",
          "type": "uint256"
        },
        {
          "indexed": false,
          "internalType": "uint256",
          "name": "result",
          "type": "uint256"
        }
      ],
      "name": "GuessResult",
      "type": "event"
    },
    {
      "inputs": [
        {
          "internalType": "uint256",
          "name": "playerChoice",
          "type": "uint256"
        },
        {
          "internalType": "uint256",
          "name": "computerChoice",
          "type": "uint256"
        }
      ],
      "name": "play",
      "outputs": [
        {
          "internalType": "bool",
          "name": "",
          "type": "bool"
        }
      ],
      "stateMutability": "payable",
      "type": "function",
      "payable": true
    }
  ],
  "bytecode": "0x608060405234801561001057600080fd5b506101ec806100206000396000f3fe60806040526004361061001e5760003560e01c80637bc49a9514610023575b600080fd5b6100596004803603604081101561003957600080fd5b810190808035906020019092919080359060200190929190505050610071565b60405180821515815260200191505060405180910390f35b60008083118015610083575060038311155b801561008f5750600082115b801561009c575060038211155b156101ab57818314156100f6577fa70bef6827988aad0390a3cec93a1e34f5b83b132ad302b0a0afc8d1a16a7d0b8383600160405180848152602001838152602001828152602001935050505060405180910390a16101a2565b6003600183018161010357fe5b06831415610158577fa70bef6827988aad0390a3cec93a1e34f5b83b132ad302b0a0afc8d1a16a7d0b8383600260405180848152602001838152602001828152602001935050505060405180910390a16101a1565b7fa70bef6827988aad0390a3cec93a1e34f5b83b132ad302b0a0afc8d1a16a7d0b8383600360405180848152602001838152602001828152602001935050505060405180910390a15b5b600190506101b0565b600090505b9291505056fea2646970667358221220ba284f35930eff183124ab9d55f8c3f24828bc9d5bcdee9a035fd9f5f089ce9f64736f6c634300060c0033",
  "immutableReferences": {},
  "source": "// SPDX-License-Identifier: MIT\n// pragma solidity ^0.8.13;\n\npragma solidity ^0.6.12;\n\ncontract GuessGame {\n  event GuessResult(uint playerChoice, uint computerChoice, uint result);\n\n  // 处理两个猜拳选项\n  // 值得注意的是，在web3.js中调用play函数无法获取直接获取返回值，\n  // 智能合约执行需要消耗以太币，产生交易，故web3.js得到的返回结果是产生交易的hash值\n  // web3.js要获取猜拳结果需要通过监听GuessResult事件\n  function play(uint playerChoice, uint computerChoice) public payable returns (bool) {\n      // 石头、剪刀和布均用数字表示\n      // 其中1表示\n      if (playerChoice > 0 && playerChoice <= 3 && computerChoice > 0 && computerChoice <= 3) {\n          // 如果两者相同，则代表平手\n          if (playerChoice == computerChoice) {\n              emit GuessResult(playerChoice, computerChoice, 1);   // 选项相同 代表平手\n          } else if (playerChoice == (computerChoice + 1) % 3) {\n              emit GuessResult(playerChoice, computerChoice, 2);  // 这里代表电脑赢了\n          } else {\n              emit GuessResult(playerChoice, computerChoice, 3);  // 其他情况代表玩家赢了\n          }\n          return true; //执行成功返回true\n      } else {\n          return false;  // 执行错误返回false\n      }\n  }\n}",
  "sourcePath": "/Users/e/Desktop/chain/guess-game/contracts/GuessGame.sol",
  "compiler": {
    "name": "solc",
    "version": "0.6.12+commit.27d51765.Emscripten.clang"
  },
  "schemaVersion": "3.4.8",
  "updatedAt": "2022-10-13T07:47:00.052Z",
  "networkType": "ethereum",
  "devdoc": {
    "kind": "dev",
    "methods": {},
    "version": 1
  },
  "userdoc": {
    "kind": "user",
    "methods": {},
    "version": 1
  }
}