{
  "contractName": "GuessGame",
  "abi": [
    {
      "anonymous": false,
      "inputs": [
        {
          "indexed": false,
          "internalType": "uint256",
          "name": "playerChoice",
          "type": "uint256"
        },
        {
          "indexed": false,
          "internalType": "uint256",
          "name": "computerChoice",
          "type": "uint256"
        },
        {
          "indexed": false,
          "internalType": "uint256",
          "name": "result",
          "type": "uint256"
        }
      ],
      "name": "GuessResult",
      "type": "event"
    },
    {
      "inputs": [
        {
          "internalType": "uint256",
          "name": "playerChoice",
          "type": "uint256"
        },
        {
          "internalType": "uint256",
          "name": "computerChoice",
          "type": "uint256"
        }
      ],
      "name": "play",
      "outputs": [
        {
          "internalType": "bool",
          "name": "",
          "type": "bool"
        }
      ],
      "stateMutability": "payable",
      "type": "function",
      "payable": true
    }
  ],
  "bytecode": "0x608060405234801561001057600080fd5b50610496806100206000396000f3fe60806040526004361061001e5760003560e01c80637bc49a9514610023575b600080fd5b61003d600480360381019061003891906101b8565b610053565b60405161004a9190610213565b60405180910390f35b60008083118015610065575060038311155b80156100715750600082115b801561007e575060038211155b15610172578183036100cb577fa70bef6827988aad0390a3cec93a1e34f5b83b132ad302b0a0afc8d1a16a7d0b838360016040516100be93929190610282565b60405180910390a1610169565b60036001836100da91906102e8565b6100e4919061034b565b830361012b577fa70bef6827988aad0390a3cec93a1e34f5b83b132ad302b0a0afc8d1a16a7d0b8383600260405161011e939291906103b7565b60405180910390a1610168565b7fa70bef6827988aad0390a3cec93a1e34f5b83b132ad302b0a0afc8d1a16a7d0b8383600360405161015f93929190610429565b60405180910390a15b5b60019050610177565b600090505b92915050565b600080fd5b6000819050919050565b61019581610182565b81146101a057600080fd5b50565b6000813590506101b28161018c565b92915050565b600080604083850312156101cf576101ce61017d565b5b60006101dd858286016101a3565b92505060206101ee858286016101a3565b9150509250929050565b60008115159050919050565b61020d816101f8565b82525050565b60006020820190506102286000830184610204565b92915050565b61023781610182565b82525050565b6000819050919050565b6000819050919050565b600061026c6102676102628461023d565b610247565b610182565b9050919050565b61027c81610251565b82525050565b6000606082019050610297600083018661022e565b6102a4602083018561022e565b6102b16040830184610273565b949350505050565b7f4e487b7100000000000000000000000000000000000000000000000000000000600052601160045260246000fd5b60006102f382610182565b91506102fe83610182565b9250828201905080821115610316576103156102b9565b5b92915050565b7f4e487b7100000000000000000000000000000000000000000000000000000000600052601260045260246000fd5b600061035682610182565b915061036183610182565b9250826103715761037061031c565b5b828206905092915050565b6000819050919050565b60006103a161039c6103978461037c565b610247565b610182565b9050919050565b6103b181610386565b82525050565b60006060820190506103cc600083018661022e565b6103d9602083018561022e565b6103e660408301846103a8565b949350505050565b6000819050919050565b600061041361040e610409846103ee565b610247565b610182565b9050919050565b610423816103f8565b82525050565b600060608201905061043e600083018661022e565b61044b602083018561022e565b610458604083018461041a565b94935050505056fea264697066735822122008d1eb9589fd30820520ed9ada216258bc14931f41c426be6800569b6f79590e64736f6c63430008110033",
  "immutableReferences": {},
  "source": "// SPDX-License-Identifier: MIT\npragma solidity ^0.8.13;\n\n// pragma solidity ^0.6.12;\n\ncontract GuessGame {\n  event GuessResult(uint playerChoice, uint computerChoice, uint result);\n\n  // \n  // web3.jsplay\n  // web3.jshash\n  // web3.jsGuessResult\n  function play(uint playerChoice, uint computerChoice) public payable returns (bool) {\n      // \n      // 1\n      if (playerChoice > 0 && playerChoice <= 3 && computerChoice > 0 && computerChoice <= 3) {\n          // \n          if (playerChoice == computerChoice) {\n              emit GuessResult(playerChoice, computerChoice, 1);   //  \n          } else if (playerChoice == (computerChoice + 1) % 3) {\n              emit GuessResult(playerChoice, computerChoice, 2);  // \n          } else {\n              emit GuessResult(playerChoice, computerChoice, 3);  // \n          }\n          return true; //true\n      } else {\n          return false;  // false\n      }\n  }\n}",
  "sourcePath": "/Users/e/Desktop/chain/guess-game/contracts/GuessGame.sol",
  "compiler": {
    "name": "solc",
    "version": "0.8.17+commit.8df45f5f.Emscripten.clang"
  },
  "schemaVersion": "3.4.8",
  "updatedAt": "2022-10-13T08:13:07.193Z",
  "networkType": "ethereum",
  "devdoc": {
    "kind": "dev",
    "methods": {},
    "version": 1
  },
  "userdoc": {
    "kind": "user",
    "methods": {},
    "version": 1
  }
}